{
  "_format": "hh-sol-artifact-1",
  "contractName": "supremeNFT",
  "sourceName": "contracts/supremeNFT.sol",
  "abi": [
    {
      "inputs": [],
      "stateMutability": "nonpayable",
      "type": "constructor"
    },
    {
      "anonymous": false,
      "inputs": [
        {
          "indexed": true,
          "internalType": "address",
          "name": "owner",
          "type": "address"
        },
        {
          "indexed": true,
          "internalType": "address",
          "name": "approved",
          "type": "address"
        },
        {
          "indexed": true,
          "internalType": "uint256",
          "name": "tokenId",
          "type": "uint256"
        }
      ],
      "name": "Approval",
      "type": "event"
    },
    {
      "anonymous": false,
      "inputs": [
        {
          "indexed": true,
          "internalType": "address",
          "name": "owner",
          "type": "address"
        },
        {
          "indexed": true,
          "internalType": "address",
          "name": "operator",
          "type": "address"
        },
        {
          "indexed": false,
          "internalType": "bool",
          "name": "approved",
          "type": "bool"
        }
      ],
      "name": "ApprovalForAll",
      "type": "event"
    },
    {
      "anonymous": false,
      "inputs": [
        {
          "indexed": true,
          "internalType": "address",
          "name": "from",
          "type": "address"
        },
        {
          "indexed": true,
          "internalType": "address",
          "name": "to",
          "type": "address"
        },
        {
          "indexed": true,
          "internalType": "uint256",
          "name": "tokenId",
          "type": "uint256"
        }
      ],
      "name": "Transfer",
      "type": "event"
    },
    {
      "inputs": [
        {
          "internalType": "address",
          "name": "to",
          "type": "address"
        },
        {
          "internalType": "uint256",
          "name": "tokenId",
          "type": "uint256"
        }
      ],
      "name": "approve",
      "outputs": [],
      "stateMutability": "nonpayable",
      "type": "function"
    },
    {
      "inputs": [
        {
          "internalType": "address",
          "name": "owner",
          "type": "address"
        }
      ],
      "name": "balanceOf",
      "outputs": [
        {
          "internalType": "uint256",
          "name": "",
          "type": "uint256"
        }
      ],
      "stateMutability": "view",
      "type": "function"
    },
    {
      "inputs": [
        {
          "internalType": "uint256",
          "name": "tokenId",
          "type": "uint256"
        }
      ],
      "name": "getApproved",
      "outputs": [
        {
          "internalType": "address",
          "name": "",
          "type": "address"
        }
      ],
      "stateMutability": "view",
      "type": "function"
    },
    {
      "inputs": [
        {
          "internalType": "address",
          "name": "owner",
          "type": "address"
        },
        {
          "internalType": "address",
          "name": "operator",
          "type": "address"
        }
      ],
      "name": "isApprovedForAll",
      "outputs": [
        {
          "internalType": "bool",
          "name": "",
          "type": "bool"
        }
      ],
      "stateMutability": "view",
      "type": "function"
    },
    {
      "inputs": [
        {
          "internalType": "address",
          "name": "to",
          "type": "address"
        },
        {
          "internalType": "string",
          "name": "tokenUrl",
          "type": "string"
        }
      ],
      "name": "mint",
      "outputs": [],
      "stateMutability": "nonpayable",
      "type": "function"
    },
    {
      "inputs": [],
      "name": "name",
      "outputs": [
        {
          "internalType": "string",
          "name": "",
          "type": "string"
        }
      ],
      "stateMutability": "view",
      "type": "function"
    },
    {
      "inputs": [
        {
          "internalType": "uint256",
          "name": "tokenId",
          "type": "uint256"
        }
      ],
      "name": "ownerOf",
      "outputs": [
        {
          "internalType": "address",
          "name": "owner",
          "type": "address"
        }
      ],
      "stateMutability": "view",
      "type": "function"
    },
    {
      "inputs": [
        {
          "internalType": "address",
          "name": "from",
          "type": "address"
        },
        {
          "internalType": "address",
          "name": "to",
          "type": "address"
        },
        {
          "internalType": "uint256",
          "name": "tokenId",
          "type": "uint256"
        }
      ],
      "name": "safeTransferFrom",
      "outputs": [],
      "stateMutability": "nonpayable",
      "type": "function"
    },
    {
      "inputs": [
        {
          "internalType": "address",
          "name": "from",
          "type": "address"
        },
        {
          "internalType": "address",
          "name": "to",
          "type": "address"
        },
        {
          "internalType": "uint256",
          "name": "tokenId",
          "type": "uint256"
        },
        {
          "internalType": "bytes",
          "name": "_data",
          "type": "bytes"
        }
      ],
      "name": "safeTransferFrom",
      "outputs": [],
      "stateMutability": "nonpayable",
      "type": "function"
    },
    {
      "inputs": [
        {
          "internalType": "address",
          "name": "operator",
          "type": "address"
        },
        {
          "internalType": "bool",
          "name": "approved",
          "type": "bool"
        }
      ],
      "name": "setApprovalForAll",
      "outputs": [],
      "stateMutability": "nonpayable",
      "type": "function"
    },
    {
      "inputs": [
        {
          "internalType": "bytes4",
          "name": "interfaceId",
          "type": "bytes4"
        }
      ],
      "name": "supportsInterface",
      "outputs": [
        {
          "internalType": "bool",
          "name": "",
          "type": "bool"
        }
      ],
      "stateMutability": "pure",
      "type": "function"
    },
    {
      "inputs": [],
      "name": "symbol",
      "outputs": [
        {
          "internalType": "string",
          "name": "",
          "type": "string"
        }
      ],
      "stateMutability": "view",
      "type": "function"
    },
    {
      "inputs": [
        {
          "internalType": "uint256",
          "name": "tokenId",
          "type": "uint256"
        }
      ],
      "name": "tokenURI",
      "outputs": [
        {
          "internalType": "string",
          "name": "",
          "type": "string"
        }
      ],
      "stateMutability": "view",
      "type": "function"
    },
    {
      "inputs": [
        {
          "internalType": "address",
          "name": "from",
          "type": "address"
        },
        {
          "internalType": "address",
          "name": "to",
          "type": "address"
        },
        {
          "internalType": "uint256",
          "name": "tokenId",
          "type": "uint256"
        }
      ],
      "name": "transferFrom",
      "outputs": [],
      "stateMutability": "nonpayable",
      "type": "function"
    }
  ],
  "bytecode": "0x60806040523480156200001157600080fd5b50604080518082018252600b81526a1cdd5c1c995b594813919560aa1b60208083019182528351808501909452600784526673757072656d6560c81b908401528151919291620000649160009162000088565b5080516200007a90600190602084019062000088565b50506001600255506200016b565b82805462000096906200012e565b90600052602060002090601f016020900481019282620000ba576000855562000105565b82601f10620000d557805160ff191683800117855562000105565b8280016001018555821562000105579182015b8281111562000105578251825591602001919060010190620000e8565b506200011392915062000117565b5090565b5b8082111562000113576000815560010162000118565b600181811c908216806200014357607f821691505b602082108114156200016557634e487b7160e01b600052602260045260246000fd5b50919050565b61142f806200017b6000396000f3fe608060405234801561001057600080fd5b50600436106100ea5760003560e01c806370a082311161008c578063b88d4fde11610066578063b88d4fde146101e1578063c87b56dd146101f4578063d0def52114610207578063e985e9c51461021a57600080fd5b806370a08231146101a557806395d89b41146101c6578063a22cb465146101ce57600080fd5b8063095ea7b3116100c8578063095ea7b31461015757806323b872dd1461016c57806342842e0e1461017f5780636352211e1461019257600080fd5b806301ffc9a7146100ef57806306fdde0314610117578063081812fc1461012c575b600080fd5b6101026100fd3660046111b2565b610256565b60405190151581526020015b60405180910390f35b61011f6102f3565b60405161010e919061129c565b61013f61013a3660046111ec565b610381565b6040516001600160a01b03909116815260200161010e565b61016a610165366004611188565b610406565b005b61016a61017a366004611032565b6104ab565b61016a61018d366004611032565b610521565b61013f6101a03660046111ec565b61053c565b6101b86101b3366004610fe4565b6105a6565b60405190815260200161010e565b61011f61061a565b61016a6101dc3660046110ea565b610627565b61016a6101ef36600461106e565b610693565b61011f6102023660046111ec565b61070b565b61016a610215366004611126565b6107ce565b610102610228366004610fff565b6001600160a01b03918216600090815260066020908152604080832093909416825291909152205460ff1690565b60006001600160e01b031982167f80ac58cd0000000000000000000000000000000000000000000000000000000014806102b957506001600160e01b031982167f01ffc9a700000000000000000000000000000000000000000000000000000000145b806102ed57506001600160e01b031982167f5b5e139f00000000000000000000000000000000000000000000000000000000145b92915050565b600080546103009061131e565b80601f016020809104026020016040519081016040528092919081815260200182805461032c9061131e565b80156103795780601f1061034e57610100808354040283529160200191610379565b820191906000526020600020905b81548152906001019060200180831161035c57829003601f168201915b505050505081565b6000818152600360205260408120546001600160a01b03166103ea5760405162461bcd60e51b815260206004820152601360248201527f746f6b656e20646f65736e27742065786973740000000000000000000000000060448201526064015b60405180910390fd5b506000908152600560205260409020546001600160a01b031690565b6000818152600360205260409020546001600160a01b03163381148061044f57506001600160a01b038116600090815260066020908152604080832033845290915290205460ff165b61049b5760405162461bcd60e51b815260206004820152601e60248201527f6e6f74206f776e6572206e6f7220617070726f76656420666f7220616c6c000060448201526064016103e1565b6104a68184846107ef565b505050565b60006104b68261053c565b90506104c3813384610858565b61050f5760405162461bcd60e51b815260206004820152601660248201527f6e6f74206f776e6572206e6f7220617070726f7665640000000000000000000060448201526064016103e1565b61051b818585856108cb565b50505050565b6104a683838360405180602001604052806000815250610693565b6000818152600360205260409020546001600160a01b0316806105a15760405162461bcd60e51b815260206004820152601360248201527f746f6b656e20646f65736e27742065786973740000000000000000000000000060448201526064016103e1565b919050565b60006001600160a01b0382166105fe5760405162461bcd60e51b815260206004820152601460248201527f6f776e6572203d207a65726f206164647265737300000000000000000000000060448201526064016103e1565b506001600160a01b031660009081526004602052604090205490565b600180546103009061131e565b3360008181526006602090815260408083206001600160a01b03871680855290835292819020805460ff191686151590811790915590519081529192917f17307eab39ab6107e8899845ad3d59bd9653f200f220920489ca2b5937696c31910160405180910390a35050565b600061069e8361053c565b90506106ab813385610858565b6106f75760405162461bcd60e51b815260206004820152601660248201527f6e6f74206f776e6572206e6f7220617070726f7665640000000000000000000060448201526064016103e1565b6107048186868686610a54565b5050505050565b6000818152600360205260409020546060906001600160a01b03166107725760405162461bcd60e51b815260206004820152600f60248201527f546f6b656e204e6f74204578697374000000000000000000000000000000000060448201526064016103e1565b600061077c610ab8565b9050600081511161079c57604051806020016040528060008152506107c7565b806107a684610b4a565b6040516020016107b7929190611231565b6040516020818303038152906040525b9392505050565b80516107e1906007906020840190610ebe565b506107eb82610c7c565b5050565b600081815260056020526040808220805473ffffffffffffffffffffffffffffffffffffffff19166001600160a01b0386811691821790925591518493918716917f8c5be1e5ebec7d5bd14f71427d1e84f3dd0314c0f7b2291e5b200ac8c7c3b92591a4505050565b6000836001600160a01b0316836001600160a01b0316148061089357506000828152600560205260409020546001600160a01b038481169116145b806108c357506001600160a01b0380851660009081526006602090815260408083209387168352929052205460ff165b949350505050565b836001600160a01b0316836001600160a01b03161461092c5760405162461bcd60e51b815260206004820152600960248201527f6e6f74206f776e6572000000000000000000000000000000000000000000000060448201526064016103e1565b6001600160a01b0382166109825760405162461bcd60e51b815260206004820152601c60248201527f7472616e7366657220746f20746865207a65726f20616464726573730000000060448201526064016103e1565b61098e846000836107ef565b6001600160a01b03831660009081526004602052604081208054600192906109b79084906112db565b90915550506001600160a01b03821660009081526004602052604081208054600192906109e59084906112af565b9091555050600081815260036020526040808220805473ffffffffffffffffffffffffffffffffffffffff19166001600160a01b0386811691821790925591518493918716917fddf252ad1be2c89b69c2b068fc378daa952ba7f163c4a11628f55a4df523b3ef91a450505050565b610a60858585856108cb565b610a6c84848484610df0565b6107045760405162461bcd60e51b815260206004820152601260248201527f6e6f74204552433732315265636569766572000000000000000000000000000060448201526064016103e1565b606060078054610ac79061131e565b80601f0160208091040260200160405190810160405280929190818152602001828054610af39061131e565b8015610b405780601f10610b1557610100808354040283529160200191610b40565b820191906000526020600020905b815481529060010190602001808311610b2357829003601f168201915b5050505050905090565b606081610b8a57505060408051808201909152600181527f3000000000000000000000000000000000000000000000000000000000000000602082015290565b8160005b8115610bb45780610b9e81611359565b9150610bad9050600a836112c7565b9150610b8e565b60008167ffffffffffffffff811115610bcf57610bcf6113ca565b6040519080825280601f01601f191660200182016040528015610bf9576020820181803683370190505b5090505b84156108c357610c0e6001836112db565b9150610c1b600a86611374565b610c269060306112af565b60f81b818381518110610c3b57610c3b6113b4565b60200101907effffffffffffffffffffffffffffffffffffffffffffffffffffffffffffff1916908160001a905350610c75600a866112c7565b9450610bfd565b6001600160a01b038116610cd25760405162461bcd60e51b815260206004820152601460248201527f6d696e7420746f207a65726f206164647265737300000000000000000000000060448201526064016103e1565b6002546000818152600360205260409020546001600160a01b031615610d3a5760405162461bcd60e51b815260206004820152601460248201527f746f6b656e20616c7265616479206d696e74656400000000000000000000000060448201526064016103e1565b6001600160a01b0382166000908152600460205260408120805460019290610d639084906112af565b90915550506000818152600360205260408120805473ffffffffffffffffffffffffffffffffffffffff19166001600160a01b0385161790556002805460019290610daf9084906112af565b909155505060405181906001600160a01b038416906000907fddf252ad1be2c89b69c2b068fc378daa952ba7f163c4a11628f55a4df523b3ef908290a45050565b60006001600160a01b0384163b15610eb3576040517f150b7a0200000000000000000000000000000000000000000000000000000000808252906001600160a01b0386169063150b7a0290610e4f9033908a9089908990600401611260565b602060405180830381600087803b158015610e6957600080fd5b505af1158015610e7d573d6000803e3d6000fd5b505050506040513d601f19601f82011682018060405250810190610ea191906111cf565b6001600160e01b0319161490506108c3565b506001949350505050565b828054610eca9061131e565b90600052602060002090601f016020900481019282610eec5760008555610f32565b82601f10610f0557805160ff1916838001178555610f32565b82800160010185558215610f32579182015b82811115610f32578251825591602001919060010190610f17565b50610f3e929150610f42565b5090565b5b80821115610f3e5760008155600101610f43565b600067ffffffffffffffff80841115610f7257610f726113ca565b604051601f8501601f19908116603f01168101908282118183101715610f9a57610f9a6113ca565b81604052809350858152868686011115610fb357600080fd5b858560208301376000602087830101525050509392505050565b80356001600160a01b03811681146105a157600080fd5b600060208284031215610ff657600080fd5b6107c782610fcd565b6000806040838503121561101257600080fd5b61101b83610fcd565b915061102960208401610fcd565b90509250929050565b60008060006060848603121561104757600080fd5b61105084610fcd565b925061105e60208501610fcd565b9150604084013590509250925092565b6000806000806080858703121561108457600080fd5b61108d85610fcd565b935061109b60208601610fcd565b925060408501359150606085013567ffffffffffffffff8111156110be57600080fd5b8501601f810187136110cf57600080fd5b6110de87823560208401610f57565b91505092959194509250565b600080604083850312156110fd57600080fd5b61110683610fcd565b91506020830135801515811461111b57600080fd5b809150509250929050565b6000806040838503121561113957600080fd5b61114283610fcd565b9150602083013567ffffffffffffffff81111561115e57600080fd5b8301601f8101851361116f57600080fd5b61117e85823560208401610f57565b9150509250929050565b6000806040838503121561119b57600080fd5b6111a483610fcd565b946020939093013593505050565b6000602082840312156111c457600080fd5b81356107c7816113e0565b6000602082840312156111e157600080fd5b81516107c7816113e0565b6000602082840312156111fe57600080fd5b5035919050565b6000815180845261121d8160208601602086016112f2565b601f01601f19169290920160200192915050565b600083516112438184602088016112f2565b8351908301906112578183602088016112f2565b01949350505050565b60006001600160a01b038087168352808616602084015250836040830152608060608301526112926080830184611205565b9695505050505050565b6020815260006107c76020830184611205565b600082198211156112c2576112c2611388565b500190565b6000826112d6576112d661139e565b500490565b6000828210156112ed576112ed611388565b500390565b60005b8381101561130d5781810151838201526020016112f5565b8381111561051b5750506000910152565b600181811c9082168061133257607f821691505b6020821081141561135357634e487b7160e01b600052602260045260246000fd5b50919050565b600060001982141561136d5761136d611388565b5060010190565b6000826113835761138361139e565b500690565b634e487b7160e01b600052601160045260246000fd5b634e487b7160e01b600052601260045260246000fd5b634e487b7160e01b600052603260045260246000fd5b634e487b7160e01b600052604160045260246000fd5b6001600160e01b0319811681146113f657600080fd5b5056fea2646970667358221220f884d2d8a8f836a6d1c65140b2281a03eb10c2e2f033479861596dec2fbe032964736f6c63430008060033",
  "linkReferences": {},
  "deployedLinkReferences": {}
}